:1000000030C04AC049C048C029C346C045C044C0EA
:1000100043C006C3C2C16FC13FC03EC047C03CC061
:100020003BC03AC039C00D0A566F6C7461676520D9
:1000300000004F435231410D0A0000554846204907
:100040006E6469636174696F6E2050726F20426FD5
:100050006172642053572076657273696F6E200059
:10006000000011241FBECFE5D4E0DEBFCDBF10E0FD
:10007000A0E6B0E0E4E3F8E002C005900D92A23CF7
:10008000B107D9F721E0A2ECB0E001C01D92AA3679
:10009000B207E1F737D0CCC3B3CF80E687B987E8A2
:1000A00086B9339A87B1836087B908951F920F92FA
:1000B0000FB60F9211248F9385B18093E400809145
:1000C000E50082608093E5008F910F900FBE0F9046
:1000D0001F90189583E187BB87E084BB8AEF81BBC3
:1000E00008951092C4001092E40039D3C098809112
:1000F000E5008F778093E5008091E5008F7880930D
:10010000E50008958091E50081608093E500E2DFDD
:10011000C6B3C2FB882780F9C1E0C827BEDFB29B07
:10012000C260369A3699FECF84B195B131D17894B8
:100130006DD08CE073D0B29BC46058D2B29BC860C3
:10014000D0DFCC2311F00BD303C0EAD218D300D1F7
:1001500063D2E5EBF0E0A8EDB0E081918D9320E073
:10016000E13CF207D1F78091E200813019F48091EF
:10017000E00002C08091E10024E0829FC0011124D0
:100180009BBD8ABD30D28091E3007ED0C1110AC0F0
:100190008091E50082FD02C00000FACFCDD28FE54C
:1001A0003DD004C08EE73AD08C2F6ED08091E50010
:1001B0008E7F8093E5008091E50088608093E50064
:1001C0008AE02CD08091E50083FF08C08091E50093
:1001D000877F8093E500C111939AD1D28091E60088
:1001E00080FF08C08091E6008E7F8093E6008091BA
:1001F000C20006D18091E50081FFE4CF8091E50047
:100200008D7F8093E5008091E400DCCF10BC89E114
:1002100089B986E880BD88E98AB908958CB95D9B63
:10022000FECF0895CF93DF93EC01FE0184918823E4
:1002300019F0F4DF2196F9CFDF91CF910895EF9275
:10024000FF920F931F93CF93DF937C018C01C62FF6
:10025000D0E0C8018E199F098C179D072CF4F80176
:1002600081918F01DBDFF5CFDF91CF911F910F914E
:10027000FF90EF9008958DE08CB95D9BFECF8AE0F2
:100280008CB95D9BFECF0895CF93C82F87FF02C026
:1002900081E301C080E3C2DFC6FF02C081E301C089
:1002A00080E3BCDFC5FF02C081E301C080E3B6DFAD
:1002B000C4FF02C081E301C080E3B0DFC3FF02C01E
:1002C00081E301C080E3AADFC2FF02C081E301C075
:1002D00080E3A4DFC1FF02C081E301C080E39EDFB1
:1002E000C0FF02C081E301C080E398DFCF91C3CF9C
:1002F0008FEF9FEF08951F920F920FB60F92112468
:100300002F933F934F935F936F937F938F939F931D
:10031000AF93BF93EF93FF938CB18093C200809112
:10032000E60081608093E6008091C20077DFFF9154
:10033000EF91BF91AF919F918F917F916F915F915D
:100340004F913F912F910F900FBE0F901F901895D6
:10035000949A9498089520E130E097FF02C0979A0C
:1003600001C09798959A880F991F95982150310947
:10037000A1F7089528E030E087FF02C0979A01C0F6
:100380009798959A880F959821503109A9F7089563
:1003900080EC8DB908958FB908951F920F920FB612
:1003A0000F9211248F93EF93FF938FB18093C4002A
:1003B0008091C4008CB98091C4008A3121F41092DC
:1003C000C300939815C0E091C300E83088F4809191
:1003D000C400803219F488E58093C40081E08E0F58
:1003E0008093C3008091C400F0E0E852FF4F808307
:1003F000FF91EF918F910F900FBE0F901F90189566
:100400001F93CF93DF93843609F480C0E0F48D31DD
:1004100009F46CC048F49091C7008D3009F441C0D4
:100420008C3109F46CC0CCC08D3509F49AC0833688
:1004300009F48DC08B3509F0C3C08091C50090913F
:10044000C6000A9793C0813709F467C0F0F48E366E
:1004500009F460C0803709F476C0863609F0B0C070
:100460000ADF8091DA00DADE8091DB00D7DE80914E
:10047000DC00D4DE8EE2D2DE8091DD00CFDE809122
:10048000DE00CCDE8091DF0068C0863709F475C0DD
:100490008F3731F1853709F093C0DF91CF911F91EC
:1004A00057CF933048F48091C8008093D800809152
:1004B000C9008093D9000EC0E8ECF0E080E090E045
:1004C0002191DC01A852BF4F12962C9301968630E1
:1004D0009105B1F71092C700DF91CF911F91CBCE5C
:1004E000E091C700F0E0E853FF4F10828091C70011
:1004F000882309F474C081508093C70070C0903184
:1005000008F06DC09F5F9093C70069C081E0809341
:10051000E20065C01092E20062C08BE390E082DEF0
:100520008091E300B1DE8091E200813011F484E437
:1005300001C08EE473DE9FDE82E390E073DE8BB554
:10054000A3DE8AB5A1DE82E469DE86B335C093DE20
:100550008091D80063DE8091D900DF91CF911F9107
:100560005DCE8091C5009091C6000A969093C6001A
:100570008093C5009BBD8ABD32C086E290E052DE0A
:10058000C5B182E3C89FE0011124CE0166EF79E096
:1005900028D1162F80E3860F41DE8EE23FDECE01AA
:1005A0006FEF70E01ED180E3860F9AE0199F8019EB
:1005B000112434DE60DE85B1DF91CF911F9164CECE
:1005C000E091C700E03158F4803209F488E591E009
:1005D0009E0F9093C700F0E0E853FF4F8083DF91B8
:1005E000CF911F9108958BE390E01CCE85E083BFEF
:1005F00089B7816089BF82E88FBD8AE08EBD81E0C6
:100600008BBD8CEE8ABD89B78B7F89BF83E085BDAA
:1006100089B7806489BF089589B7806489BF0895C8
:100620001F920F920FB60F9211248F938091E500C5
:1006300080FF0DC080916000882321F0815080935D
:10064000600005C08091E50084608093E500369AE3
:100650008F910F900FBE0F901F9018951F920F92C1
:100660000FB60F9211242F938F939F938091E900DF
:1006700081111FC088E08093E9002091E50027FBED
:10068000222720F985B3887F85BB95B387E0821B3D
:10069000892B85BB8091E50087FB882780F98F5FD8
:1006A0009091E50080FB97F99093E5008091E5003B
:1006B0002AC08091E90081508093E9008091E50093
:1006C0008295877095B3987F95BB95B3892B85BB31
:1006D0008091E50082958F708F5F8770982F92953B
:1006E000907F8091E5008F78892B8093E500809141
:1006F000E5008295877090E006972CF08091E500E8
:100700008F788093E5008091E50088608093E50014
:100710009F918F912F910F900FBE0F901F90189562
:10072000E8EDF0E088E380838183828383838483A0
:100730008583868387830895E8EDF0E081E38083F5
:1007400084E3818383E3828386E3838387E38483F3
:1007500088E3858382E3868385E38783089596987B
:10076000969AE8EDF0E080E28083818388E58283D9
:1007700083839EE294838583868387830895E8DD5F
:10078000E091E500E295E770F0E0E852FF4F22814A
:10079000822F90E02A3340F0880F991FFC01E1522C
:1007A000F040808191810EC02091E5002295277054
:1007B000880F991FFC01E95CFF4F808191812230F5
:1007C00009F48064C8DDE091E500E7FBEE27E0F97D
:1007D000F0E0E852FF4FE081F0E0E558FF4F808104
:1007E000C9CD97FB072E16F4009406D077FD08D0EC
:1007F0000BD007FC05D03EF4909581959F4F08954E
:10080000709561957F4F0895AA1BBB1B51E107C0EE
:10081000AA1FBB1FA617B70710F0A61BB70B881F90
:10082000991F5A95A9F780959095BC01CD0108951F
:04083000F894FFCF6A
:100834002F23CC36453108360531882188334803C7
:10084400CC3401000001B811080B2C0B1C330C2410
:1008540045000021DC33C024010000012A031E00EE
:100864000000C040000022332E020430463244030C
:10087400C4319013C8220433CC23C477065D5E2EA2
:100884007A3B467F6E3132323537383030167B0052
:02089400020060
:00000001FF
